:020000040000FA
:100000000C9458000C9480000C9480000C94800098
:100010000C9480000C9480000C9480000C94800060
:100020000C9480000C945E050C9480000C9480006D
:100030000C9480000C9498050C9480000C94800023
:100040000C94F5030C9480000C94C3030C949D0352
:100050000C9480000C9480000C9480000C94800020
:100060000C943F040C948000000000002500280040
:100070002B00040404040404040402020202020229
:10008000030303030303010204081020408001025C
:1000900004081020010204081020000000080002DB
:1000A0000100000304070000000000000000A2059A
:1000B00011241FBECFEFD8E0DEBFCDBF11E0A0E01E
:1000C000B1E0E6E9FDE002C005900D92A832B1076B
:1000D000D9F722E0A8E2B1E001C01D92A238B20730
:1000E000E1F710E0C8E5D0E004C02197FE010E94CE
:1000F000C306C735D107C9F70E94DB050C94C906B2
:100100000C9400000895CF93DF93AC01E091D701E8
:10011000F091D8013097F1F09091D6018091D501FE
:100120009817C0F090E0292F30E02617370754F4D5
:10013000D901AA5CBE4F240F351FE90128812C93F9
:100140009F5FF1CF1092D6016093D501CB01DF9173
:10015000CF910994DF91CF910895AF92BF92CF9242
:10016000DF92EF92FF920F931F93CF93DF936C0177
:100170007B018B01040F151FEB015E01AE18BF0858
:10018000C017D10759F06991D601ED91FC9101900A
:10019000F081E02DC6010995892B79F7C501DF9122
:1001A000CF911F910F91FF90EF90DF90CF90BF9074
:1001B000AF900895FC01538D448D252F30E0842F9E
:1001C00090E0821B930B541710F0CF96089501977F
:1001D0000895FC01918D828D981761F0A28DAE0F6C
:1001E000BF2FB11D5D968C91928D9F5F9F73928FF3
:1001F00090E008958FEF9FEF0895FC01918D828D1F
:10020000981731F0828DE80FF11D858D90E00895EB
:100210008FEF9FEF0895FC01918D228D892F90E043
:10022000805C9F4F821B91098F739927089589EDF8
:1002300091E00E940B0121E0892B09F420E0822F3C
:10024000089580E090E0892B29F00E941701811128
:100250000C9400000895FC01A48DA80FB92FB11DC6
:10026000A35ABF4F2C91848D90E001968F739927EC
:10027000848FA689B7892C93A089B1898C918370CA
:1002800080648C93938D848D981306C00288F389C3
:10029000E02D80818F7D80830895EF92FF920F93F0
:1002A0001F93CF93DF93EC0181E0888F9B8D8C8D22
:1002B00098131AC0E889F989808185FF15C09FB716
:1002C000F894EE89FF896083E889F98980818370D9
:1002D000806480839FBF81E090E0DF91CF911F9188
:1002E0000F91FF90EF900895F62E0B8D10E00F5FA9
:1002F0001F4F0F731127E02E8C8D8E110CC00FB67F
:1003000007FCFACFE889F989808185FFF5CFCE0116
:100310000E942B01F1CFEB8DEC0FFD2FF11DE35A65
:10032000FF4FF0829FB7F8940B8FEA89FB89808199
:100330008062CFCFCF93DF93EC01888D8823B9F013
:10034000AA89BB89E889F9898C9185FD03C08081E0
:1003500086FD0DC00FB607FCF7CF8C9185FFF2CF5D
:10036000808185FFEDCFCE010E942B01E9CFDF9187
:10037000CF91089590E0FC01E656FF4F2491FC01D7
:10038000EA57FF4F3491FC01EE58FF4FE491EE2302
:10039000C9F0222339F0233001F1A8F4213019F1FA
:1003A000223029F1F0E0EE0FFF1FE859FF4FA59131
:1003B000B4918FB7F894EC91611126C030953E232B
:1003C0003C938FBF08952730A9F02830C9F024301E
:1003D00049F7809180008F7D03C0809180008F77E6
:1003E00080938000DFCF84B58F7784BDDBCF84B569
:1003F0008F7DFBCF8091B0008F778093B000D2CFFC
:100400008091B0008F7DF9CF3E2BDACF3FB7F894C3
:100410008091CB019091CC01A091CD01B091CE0102
:1004200026B5A89B05C02F3F19F00196A11DB11D4F
:100430003FBFBA2FA92F982F8827BC01CD01620F8B
:10044000711D811D911D42E0660F771F881F991F46
:100450004A95D1F7089520917C01260F3327331F49
:1004600021323105ECF42091A001FC0190E080E004
:10047000243069F082E00895A0917C012191AC01C3
:10048000445A5E4FA40FB52FB11D2C9301968617C9
:1004900098F380917C01680F60937C0180E008955F
:1004A00081E008951092A00181E08093A201109252
:1004B000A10161E082E10E94BA0161E083E10E9452
:1004C000BA01E9EBF0E080818E7F808380818D7FAF
:1004D000808388E48093B80085E48093BC0008950D
:1004E0000895E091D6018091D501E81730F4F0E04D
:1004F000EA5CFE4F808190E008958FEF9FEF0895B2
:100500009091D6018091D5012FEF3FEF981748F4D5
:10051000E92FF0E0EA5CFE4F208130E09F5F90938E
:10052000D601C90108958091D5019091D601891B0A
:10053000990B0895CF93DF93CB01EA01642F0E94BA
:100540002B02CE01DF91CF910895CF93DF931F92BD
:10055000CDB7DEB7698361E0CE0101960E942B0220
:1005600081E090E00F90DF91CF91089590E080E0DE
:10057000089508958F929F92AF92BF920F931F9309
:10058000CF93DF93CDB7DEB7A1970FB6F894DEBF58
:100590000FBECDBF19A2423008F44AE08E010F5DB4
:1005A0001F4F842E912CB12CA12CA50194010E94E7
:1005B000A106E62FB901CA01EA3044F5E05DD80191
:1005C000EE938D01232B242B252B79F790E080E0EF
:1005D000109769F0FD0101900020E9F73197AF0114
:1005E0004A1B5B0BBD0189ED91E00E94AD00A19615
:1005F0000FB6F894DEBF0FBECDBFDF91CF911F9134
:100600000F91BF90AF909F908F900895E95CD7CFE6
:10061000CF93DF9385ED8093BC008091580190913A
:100620005901A0915A01B0915B010796A11DB11D1E
:1006300023E0B695A795979587952A95D1F72091B0
:10064000BC0024FD03C01092A00136C040915801A7
:100650005091590160915A0170915B01452B462BD5
:10066000472B69F30097A105B10541F025E32A95D1
:10067000F1F700000197A109B109E1CF809157017D
:1006800091E0909356018823B9F0C091B800D091C1
:10069000BA008091BC008A7B8093BC0060E082E15C
:1006A0000E94BA0160E083E10E94BA010E945202F6
:1006B000D093BA00C093B800DF91CF910895CF9244
:1006C000DF92EF92FF928091D5019091D601891B24
:1006D000990B029754F086E792E00E948002682FFF
:1006E00089ED91E00E944D01EECF86E792E00E94F5
:1006F00080026C01990FEE08FF084AE0C701B601BD
:10070000F7FE0DC06DE289ED91E00E944D01662774
:100710007727CB016C197D098E099F094AE00E9459
:10072000BA0242E050E064E271E089ED91E0FF90AE
:10073000EF90DF90CF900C94AD001F920F920FB608
:100740000F9211242F933F934F935F936F937F9357
:100750008F939F93AF93BF93EF93FF9389ED91E0B6
:100760000E942B01FF91EF91BF91AF919F918F91CB
:100770007F916F915F914F913F912F910F900FBE9D
:100780000F901F9018951F920F920FB60F92112481
:100790002F938F939F93EF93FF93E091E901F09153
:1007A000EA018081E091EF01F091F00182FD1BC030
:1007B00090818091F2018F5F8F732091F3018217F6
:1007C00041F0E091F201F0E0E752FE4F958F809307
:1007D000F201FF91EF919F918F912F910F900FBE9A
:1007E0000F901F9018958081F4CF1F920F920FB633
:1007F0000F9211242F933F938F939F93AF93BF93A7
:100800008091C7019091C801A091C901B091CA011E
:100810003091C60123E0230F2D3758F50196A11D15
:10082000B11D2093C6018093C7019093C801A09386
:10083000C901B093CA018091CB019091CC01A091E4
:10084000CD01B091CE010196A11DB11D8093CB01C8
:100850009093CC01A093CD01B093CE01BF91AF9105
:100860009F918F913F912F910F900FBE0F901F90EE
:10087000189526E8230F0296A11DB11DD2CF1F9215
:100880000F920FB60F9211242F933F934F935F93C4
:100890006F937F938F939F93AF93BF93EF93FF9348
:1008A0008091B900887F803609F44AC0F0F588321B
:1008B00009F4A7C018F5803109F49BC0B8F4882367
:1008C00009F4F9C0883009F494C0FF91EF91BF9109
:1008D000AF919F918F917F916F915F914F913F91D8
:1008E0002F910F900FBE0F901F901895883109F42B
:1008F00088C0803251F780939F0114C0803409F47E
:100900009DC040F48033B9F38833F9F680939F019A
:1009100085ECB0C0803509F485C0883509F496C0EF
:10092000883499F60E940803D0CF883909F48CC026
:1009300038F5883729F050F4883611F0803729F6D9
:1009400083E08093A00110929E0157C0883809F47B
:100950007BC0803919F0803809F0B7CF80919E01B3
:10096000803208F071C0E0919E0181E08E0F80938B
:100970009E018091BB00F0E0E258FE4F80833DC0B5
:10098000803B39F0E0F4803A09F479C0883A09F004
:100990009CCF84E08093A00110927D0110927C0195
:1009A000E091D101F091D201099580917C018111F2
:1009B0000FC081E080937C0110925C0109C0803CF3
:1009C00009F4A6CF883C09F4A3CF883B09F07DCF7A
:1009D000E0917D0181E08E0F80937D01F0E0E45A8B
:1009E000FE4F80818093BB0090917D0180917C01BE
:1009F00029C08091C5018093BB0085EC8093BC0029
:100A000064CF9091C4018091C301981758F5E0918B
:100A1000C40181E08E0F8093C401F0E0ED55FE4FDC
:100A20008081E9CFE091C40181E08E0F8093C40101
:100A30008091BB00F0E0ED55FE4F80839091C401A2
:100A40008091C3019817C8F285E8D8CFE091C4011E
:100A500081E08E0F8093C4018091BB00F0E0ED55E2
:100A6000FE4F80838091A20181115CCF81E0809351
:100A7000A10184EA8093BC001092A00126CF85ECEE
:100A80008093BC001092A00180919E01803230F4CE
:100A9000E0919E01F0E0E258FE4F108260919E01CD
:100AA00070E0E091CF01F091D0018EE791E00995DF
:100AB00010929E010ACF10929F0134CF1F920F9285
:100AC0000FB60F9211242F933F934F935F936F9321
:100AD0007F938F939F93AF93BF93EF93FF938091F7
:100AE0002E0181110FC010922B0110922A01109239
:100AF00029011092280110922D0110922C0181E001
:100B000080932E01E0912801F09129010995FF9130
:100B1000EF91BF91AF919F918F917F916F915F9175
:100B20004F913F912F910F900FBE0F901F901895EE
:100B30001F920F920FB60F9211240F900FBE0F90BD
:100B40001F901895E9EDF1E01382128288EE93E090
:100B5000A0E0B0E084839583A683B78324E031E0EE
:100B60003183208325EC30E03587248724EC30E086
:100B70003787268720EC30E0318B208B21EC30E06A
:100B8000338B228B22EC30E0358B248B26EC30E04B
:100B9000378B268B118E128E138E148EE6E7F2E0C1
:100BA0001382128284839583A683B78386E191E0C2
:100BB000918380830895789484B5826084BD84B5E0
:100BC000816084BD85B5826085BD85B5816085BD48
:100BD00080916E00816080936E0010928100809100
:100BE0008100826080938100809181008160809388
:100BF0008100809180008160809380008091B100AD
:100C000084608093B1008091B00081608093B000D7
:100C100080917A00846080937A0080917A0082606B
:100C200080937A0080917A00816080937A0080912D
:100C30007A00806880937A001092C1001092D601E9
:100C40001092D5011092D4011092D3010E94520249
:100C500082E890E09093D2018093D10183E890E004
:100C60009093D0018093CF0186E18093BA008FE505
:100C700093E09093D8018093D701E091E901F0913E
:100C8000EA0182E08083E091E501F091E6011082C3
:100C9000E091E701F091E8018FEC80831092F1017F
:100CA000E091ED01F091EE0186E08083E091EB01AF
:100CB000F091EC01808180618083E091EB01F09103
:100CC000EC01808188608083E091EB01F091EC0180
:100CD000808180688083E091EB01F091EC0180815C
:100CE0008F7D8083C0E0D0E00E9406024B015C0152
:100CF00084E6C82ED12CE12CF12C0E940602681942
:100D000079098A099B09683E734081059105A8F31A
:100D100021E0C21AD108E108F10888EE880E83E0CC
:100D2000981EA11CB11CC114D104E104F10429F7DF
:100D30002097D1F20E9417018823B1F20E9400008F
:100D4000D3CFA1E21A2EAA1BBB1BFD010DC0AA1F07
:100D5000BB1FEE1FFF1FA217B307E407F50720F024
:100D6000A21BB30BE40BF50B661F771F881F991F9F
:100D70001A9469F760957095809590959B01AC01E8
:100D8000BD01CF010895EE0FFF1F0590F491E02DF6
:100D90000994F894FFCF000000004D01AD00DA0087
:100DA0009A010B01E900FD0000000000A5029A0273
:0E0DB000B60270029302800271020D0A00006A
:107800000C94343C0C94513C0C94513C0C94513CE1
:107810000C94513C0C94513C0C94513C0C94513CB4
:107820000C94513C0C94513C0C94513C0C94513CA4
:107830000C94513C0C94513C0C94513C0C94513C94
:107840000C94513C0C94513C0C94513C0C94513C84
:107850000C94513C0C94513C0C94513C0C94513C74
:107860000C94513C0C94513C11241FBECFEFD8E036
:10787000DEBFCDBF11E0A0E0B1E0ECE9FFE702C060
:1078800005900D92A230B107D9F712E0A2E0B1E065
:1078900001C01D92AD30B107E1F70E942D3D0C945F
:1078A000CC3F0C94003C982F959595959595959582
:1078B000905D8F708A307CF0282F295A8091C0000B
:1078C00085FFFCCF9093C6008091C00085FFFCCF60
:1078D0002093C6000895282F205DF0CF982F809127
:1078E000C00085FFFCCF9093C6000895EF92FF92F1
:1078F0000F931F93EE24FF2487018091C00087FD22
:1079000017C00894E11CF11C011D111D81E4E8164B
:1079100082E4F8068FE0080780E0180770F3E09132
:107920000401F091050109958091C00087FFE9CF1E
:107930008091C6001F910F91FF90EF9008950E94D3
:10794000763C982F8091C00085FFFCCF9093C600B5
:1079500091362CF490330CF09053892F089597555D
:10796000892F08951F930E949F3C182F0E949F3CCF
:107970001295107F810F1F9108951F93182F882350
:1079800021F00E94763C1150E1F71F9108951F935A
:10799000182F0E94763C803249F0809103018F5F5E
:1079A000809303018530C1F01F9108958091C0003C
:1079B00085FFFCCF84E18093C6008091C00085FFE5
:1079C000FCCF1093C6008091C00085FFFCCF80E102
:1079D0008093C6001F910895E0910401F091050184
:1079E00009951F9108950E94763C803241F0809164
:1079F00003018F5F80930301853081F008958091AA
:107A0000C00085FFFCCF84E18093C6008091C00058
:107A100085FFFCCF80E18093C6000895E0910401CA
:107A2000F09105010995089540E951E08823A1F0FE
:107A30002D9A28EE33E0FA013197F1F721503040CA
:107A4000D1F72D9828EE33E0FA013197F1F7215064
:107A50003040D1F7815061F708953F924F925F9285
:107A60006F927F928F929F92AF92BF92CF92DF924E
:107A7000EF92FF920F931F93CF93DF93000080E16B
:107A80008093C4001092C50088E18093C10086E015
:107A90008093C2005098589A259A81E00E94143D24
:107AA00024E1F22E9EE1E92E85E9D82E0FE0C02ECA
:107AB00010E1B12EAA24A394B1E49B2EA6E58A2E50
:107AC000F2E57F2EE0E26E2E79E4572E63E5462E36
:107AD00050E5352E0E94763C8033B1F18133B9F107
:107AE000803409F46FC0813409F476C0823409F41B
:107AF00085C0853409F488C0803531F1823521F1A3
:107B0000813511F1853509F485C0863509F48DC0BC
:107B1000843609F496C0843709F403C1853709F423
:107B200072C1863709F466C0809103018F5F80932C
:107B30000301853079F6E0910401F0910501099582
:107B40000E94763C803351F60E94F33CC3CF0E94E2
:107B5000763C803249F78091C00085FFFCCFF092DF
:107B6000C6008091C00085FFFCCF9092C600809136
:107B7000C00085FFFCCF8092C6008091C00085FFC9
:107B8000FCCF7092C6008091C00085FFFCCF609250
:107B9000C6008091C00085FFFCCF5092C600809146
:107BA000C00085FFFCCF4092C6008091C00085FFD9
:107BB000FCCF3092C6008091C00085FFFCCFB09210
:107BC000C60088CF0E94763C863808F4BDCF0E945C
:107BD000763C0E94F33C7ECF0E94763C803809F4CC
:107BE0009CC0813809F40BC1823809F43CC1883942
:107BF00009F48FC080E00E94C73C6CCF84E10E94F2
:107C0000BD3C0E94F33C66CF85E00E94BD3C0E94D3
:107C1000F33C60CF0E94763C809306010E94763C44
:107C2000809307010E94F33C55CF0E94763C80333D
:107C300009F41DC183E00E94BD3C80E00E94C73C66
:107C400049CF0E94763C809309020E94763C809343
:107C5000080280910C028E7F80930C020E94763C79
:107C6000853409F415C18091080290910902892B8D
:107C700089F000E010E00E94763CF801E85FFE4FDA
:107C800080830F5F1F4F80910802909109020817AF
:107C9000190788F30E94763C803209F045CF809125
:107CA0000C0280FF01C16091060170910701660F0F
:107CB000771F7093070160930601A0910802B091AD
:107CC00009021097C9F0E8E0F1E09B01AD014E0F09
:107CD0005F1FF999FECF32BD21BD819180BDFA9A17
:107CE000F99A2F5F3F4FE417F50799F76A0F7B1F4B
:107CF00070930701609306018091C00085FFFCCF5F
:107D0000F092C6008091C00085FFFCCFB092C60003
:107D1000E1CE83E00E94C73CDDCE82E00E94C73CFA
:107D2000D9CE0E94763C809309020E94763C8093D3
:107D300008028091060190910701880F991F909386
:107D40000701809306010E94763C853409F4A6C0A1
:107D500080910C028E7F80930C020E94763C8032D0
:107D600009F0B8CE8091C00085FFFCCFF092C6002C
:107D7000609108027091090261157105B9F140E046
:107D800050E080910C02A82FA170B82FB27011C0E2
:107D9000BB2309F45CC0E0910601F0910701319624
:107DA000F0930701E09306014F5F5F4F46175707B7
:107DB000E8F4AA2369F3F999FECF209106013091E6
:107DC000070132BD21BDF89A90B58091C00085FFB2
:107DD000FCCF9093C6002F5F3F4F30930701209355
:107DE00006014F5F5F4F4617570718F38091C00099
:107DF00085FDE5CE8091C00085FFF8CFE0CE81E023
:107E00000E94C73C67CE0E94763C803209F08CCE3F
:107E10008091C00085FFFCCFF092C6008091C00029
:107E200085FFFCCFE092C6008091C00085FFFCCFAB
:107E3000D092C6008091C00085FFFCCFC092C600E2
:107E40008091C00085FFFCCFB092C60043CEE09188
:107E50000601F091070194918091C00085FFFCCF4D
:107E60009093C6009CCF80E10E94C73C33CE0E9415
:107E7000763C0E94763C182F0E94763C112309F430
:107E800083C0113009F484C08FE00E94C73C22CE29
:107E900080910C02816080930C02E5CE80910C02EF
:107EA000816080930C0259CF809107018823880F4D
:107EB000880B8A2180930B02809106019091070123
:107EC000880F991F90930701809306018091080203
:107ED00080FF09C080910802909109020196909359
:107EE000090280930802F894F999FECF1127E091D6
:107EF0000601F0910701C8E0D1E08091080290915D
:107F00000902103091F40091570001700130D9F34B
:107F100003E000935700E89500915700017001308D
:107F2000D9F301E100935700E89509901990009169
:107F3000570001700130D9F301E000935700E89534
:107F40001395103498F011270091570001700130FB
:107F5000D9F305E000935700E895009157000170B0
:107F60000130D9F301E100935700E895329602976A
:107F700009F0C7CF103011F00296E5CF112480919F
:107F8000C00085FFB9CEBCCE8EE10E94C73CA2CD19
:0E7F900085E90E94C73C9ECDF894FFCF80008B
:00000001FF
